:0200000460009A
:100000004643464200000156000000000103030081
:1000100000000000000000000000000000000000E0
:1000200000000000000000000000000000000000D0
:1000300000000000000000000000000000000000C0
:1000400000000000010408000000000000000000A3
:100050000000200000000000000000000000000080
:100060000000000000000000000000000000000090
:100070000000000000000000000000000000000080
:10008000EB04180A063204260000000000000000FD
:10009000050404240000000000000000000000002F
:1000A0000000000000000000000000000000000050
:1000B0000604000000000000000000000000000036
:1000C0000000000000000000000000000000000030
:1000D00020041808000000000000000000000000DC
:1000E0000000000000000000000000000000000010
:1000F0000000000000000000000000000000000000
:10010000D8041808000000000000000000000000F3
:100110000204180804200000000000000000000095
:1001200000000000000000000000000000000000CF
:10013000600400000000000000000000000000005B
:1001400000000000000000000000000000000000AF
:10015000000000000000000000000000000000009F
:10016000000000000000000000000000000000008F
:10017000000000000000000000000000000000007F
:10018000000000000000000000000000000000006F
:10019000000000000000000000000000000000005F
:1001A000000000000000000000000000000000004F
:1001B000000000000000000000000000000000003F
:1001C000000100000010000001000000000000001D
:1001D000000001000000000000000000000000001E
:1001E000000000000000000000000000000000000F
:1001F00000000000000000000000000000000000FF
:10020000FFFFFFFFFFFFFFFFFFFFFFFFFFFFFFFFFE
:10021000FFFFFFFFFFFFFFFFFFFFFFFFFFFFFFFFEE
:10100000D10020432914006000000000000000000F
:10101000201000600010006000240160000000004B
:10102000000000600030010000000000FFFFFFFF33
:10103000FFFFFFFFFFFFFFFFFFFFFFFFFFFFFFFFC0
:10104000FFFFFFFFFFFFFFFFFFFFFFFFFFFFFFFFB0
:10105000FFFFFFFFFFFFFFFFFFFFFFFFFFFFFFFFA0
:10106000FFFFFFFFFFFFFFFFFFFFFFFFFFFFFFFF90
:10140000884207D0904205D251F8043B40F8043B93
:101410008242F9D8704700BF884204D2002340F8C6
:10142000043B8142FBD87047654B4FF42A01654A63
:1014300065482DE9F0475A641864644A99639546F3
:10144000BFF34F8FBFF36F8F00F09AF9604B082006
:10145000604A6149C3F854016048FFF7D1FF604A10
:1014600060496148FFF7CCFF60496148FFF7D4FF4E
:10147000604C61494FF470000023604A086044F8F2
:1014800023200133B02BFAD15D4B80215D4A03F854
:10149000011B9342FBD14E4D4FF080385A494FF01B
:1014A000FF325A4B0026DFF8A0A1DFF8A0911C60A4
:1014B000C5F80481C5F800A1C5F8F480C5F8F0901E
:1014C0000B68534F43F4E0230B60FB693C4923F066
:1014D0007F0343F04003FB617B6A23F07F0343F00B
:1014E00040037B628A66CA660A674A6700F04EF963
:1014F000484A494B6320A2630321E363474A484BB0
:10150000106000F160401E6042F8041C00F6A170FB
:101510004449454AC3F8082D0B68444A43F0807398
:101520000B601368424943F00103136003680B60CA
:1015300000F09EF9C5F804813E48C5F800A1C5F841
:10154000F480C5F8F09000F06FFBF96E3A4A41F470
:1015500040513A4BF9661660C2F80861C2F818614A
:10156000C2F82861C2F838619A6BD20708D442F6F3
:101570001562334959651A659A6B42F001029A6304
:101580002E4A304C936843F00113936000F008FB3F
:1015900000F03AFB00F09EF900F0F4F82368132BFA
:1015A000FCD900F025FA2368B3F5967FFBD300F051
:1015B000EBF800F041FB00F02FFB30BFFDE700BF70
:1015C00000C00A40AFAAAAAA070020000000072016
:1015D00000800D4048DC000020200060000000007A
:1015E000C02600206CFC006000000020C0350020F8
:1015F000C02600200024002088ED00E061AD00003E
:1016000000E400E0A0E400E024ED00E008ED00E0EC
:1016100000C00F4081C7000085C7000014E000E053
:1016200018E000E0FCED00E000002020001000E0E9
:10163000C83400200046C3230040084000400D404D
:101640000000C056CC3400201B1018200C0D1113C4
:1016500010B41BB9134B1B6F9B0420D400F03F0048
:10166000104B22F0604221F0604140F489101C468A
:101670001867C3F88010C3F890201A6F22F48052C4
:101680001A67236F074A002BFBDAD2F87011064B5A
:101690000B40C2F87031136F23F4803313675DF889
:1016A000044B704700800D40FF7F7FFF2DE9F04124
:1016B0002F4F002542690124B96B4FF0020E1668C6
:1016C0004FF4303821F47C010369DFF8B0C041F4F5
:1016D0008021B96331685768394331604FF0011197
:1016E000244EC3F810E01D61C3F848C05C629E62DE
:1016F0004FF66106C3F82C809F6C1F651D629965CB
:101700001C61017E1C4B02EB0111097A03EB0111F4
:1017100089680E60017E02EB01110C7ACD6803EB43
:10172000041149680D60017E02EB01110C690CB1D6
:1017300049692160417E4FF6610402EB011191F885
:10174000281003EB011189680C60417E02EB011146
:1017500091F82840C96A03EB04135B681960437E63
:1017600002EB0312136B0BB1526B1A60BDE8F081F0
:1017700000C00F40B80B05051C0E00203B37281990
:10178000704700BF704700BF704700BFF0B5244AE4
:101790000020244B4FF0100C234C1126DFF8C8E03A
:1017A000122720600125C2F800C0C3F800E01660CF
:1017B000DFF8B8E01D4EC3F800E01D4917601E6059
:1017C00041F015011B4F1C4E17601E601B4F1C4E35
:1017D00017601E601B4F11601B4E1C491F60166076
:1017E0001B4F19601B4E1C4917601E601B4F116078
:1017F0001B4E1C491F60166019602560BFF34F8F98
:10180000BFF36F8FC3F8B001BFF34F8FBFF36F8F7C
:1018100052F8883C43F4403342F8883CF0BD00BFA6
:101820009CED00E0A0ED00E094ED00E00900100068
:10183000C035002013002000210002071400002002
:1018400025000813090000101600202027000B13A4
:101850001700004033001013180000602F000B0722
:10186000190000702F000B133F0000102500080323
:10187000F0B4174A40274FF480314FF480564FF4AC
:1018800000554FF4404443F24200136913F0020F35
:1018900006D0946151619061136913F0020FF8D181
:1018A00013F4005F01D15561EFE713F4805F01D1BC
:1018B0005661EAE7002BE8DA13F4803F01D091612A
:1018C000E3E75B0601D45761DFE7F0BC704700BF78
:1018D00000800D40394A03203949F3EE095A136854
:1018E0009FED386A23F00103DFED376AF0B413602F
:1018F00000241061D1F8E030344FD8B2C3F30B218B
:101900001B0D334E07EE100A05EE101A07EE903A43
:10191000304BB8EEC55A304DB8EEC77A3060F8EEAD
:10192000E77A29602D4937EE466A2D4E77EEC57A63
:101930002C4877EE666A2C4D37EE657A26EE276ADC
:10194000C7ED007A66EEA76A176867EE277A83ED1F
:10195000007AC6EE075A86EE876AC7EE876A35EECA
:10196000857AFCEEC77A36EE057A17EE903ABCEE31
:10197000C77A47EA035376EE857A136017EE103A7A
:10198000D2F81071FCEEE77A01EA0341394317EE11
:10199000903AC2F81011C3F30B03D2F810110B43A5
:1019A000C2F81031136843F0020313603470C0F8BA
:1019B00040510E4B0122F0BC1A60704780810D40EF
:1019C00000441F400000AA420000B442BC34002082
:1019D000B4340020B8340020B03400200000FF0FE1
:1019E00040E400E00024002025AF000008E100E012
:1019F000304B40F6617270B5C3F8202140F20445C7
:101A000000F006F92C492D48D1F880202C4C42F0EA
:101A100003022C4BC1F88020C0F8605122681340AB
:101A20001BB9D0F8A8319A071AD0244B4FF00041C7
:101A3000234A51631A46D3F8401141F00201C3F81A
:101A40004011D2F840319B07FBD44FF400301E49BF
:101A50001B4B4FF00042086019209A6300F0E8F831
:101A60001A4D0022164B4FF08041144C0A26996300
:101A700028461A601146C4F8A8614FF4607200F05D
:101A8000CFF84FF4810640F243114FF48000104B21
:101A9000104A2E602864C4F85851C4F84811C3F89D
:101AA00004220D4A4FF4003101231160C4F8403183
:101AB00070BD00BF00800D4000C00F4000002E40F0
:101AC00000900D40001C1E008CE200E00000002091
:101AD0000024002099B100000CE100E008B50E4B95
:101AE0001B6E9B0700D4FBBE72B60C4B00200C4A49
:101AF000C3F8400103F160430A49A3F55F23116471
:101B00009D46BFF34F8F084A03F5E043074912682B
:101B1000184619609368984700441F4000002E4003
:101B200000C00A40030020001C002000000012EB4F
:101B3000B1F5607FF0B428BF4FF4607172B6002534
:101B4000134B144F144E2C4603F17002386035804D
:101B500043F8044F9342FBD1B9B100230F4E012744
:101B60005D0903F01F04013356F8252007FA04F439
:101B70008B4242EA040246F82520F1D1002343803B
:101B8000013300F582708B42F9D162B6F0BC704728
:101B9000103100200C3100200035002014310020CD
:101BA000114B1249D86E0A4640F4403030B4D86622
:101BB00040F23765D86EA02440F44070D8664D647A
:101BC0008C64936C1B06FCD4094B40F23760A02157
:101BD0001A4658649964936C13F08003FBD1054A4C
:101BE000137030BC704700BF00C00F4000400C4075
:101BF00000800C401B350020F8B500BFF8BC08BCC5
:101C00009E467047000000005FF800F079AA0000CF
:101C10005FF800F0A1BB00005FF800F071C80000A1
:101C20005FF800F07DD600005FF800F01DA4000012
:101C30005FF800F0E1A600005FF800F039D0000086
:101C4000010100003D030000090B0000210B000012
:101C5000390B0000510B0000690B0000810B0000E4
:101C6000990B0000B10B0000C90B0000E10B000054
:101C7000F90B0000110C0000511000006910000069
:101C80008110000099100000B1100000C910000080
:101C9000E1100000F91000001111000029110000EE
:101CA0004111000059110000711100004D24000085
:101CB000A2A0D0EBE5B9334487C068B6B72699C770
:101CC00080C00F4000000003190000001000000059
:101CD000E8841F4001000000FF000000FF0000003A
:101CE00000000000000000001800000010000000CC
:101CF000E4841F4001000000FF000000FF0000001E
:101D000000000000000000001F00000070C00F4035
:101D1000000C00001100000011000000E0841F40D2
:101D2000020000002400000012000000E0841F40B8
:101D3000010000001000000011000000DC841F40C2
:101D4000020000002500000012000000DC841F409B
:101D5000010000001E00000070C00F40C000000025
:101D60001200000013000000D0841F40010000009A
:101D7000FF000000FF000000000000000000000065
:101D80001300000013000000CC841F40010000007D
:101D9000FF000000FF000000000000000000000045
:101DA0001C0000001A034B006500790062007200FD
:101DB0006400200041007500640069006F000000AD
:101DC00018035400650065006E007300790064001C
:101DD000750069006E006F000403090409021B010D
:101DE000060100C0320904040001030101000921B9
:101DF00011010001223F00070585030800010904C5
:101E0000000002030000000921110100012221004D
:101E100007058203400001070502032000020904B0
:101E20000500010300000009211101000122280022
:101E300007058603080004080B01030101000009DF
:101E400004010000010100000A240100013E00021B
:101E500002030C2402010206000203000000092410
:101E6000030201010001000C24020301010002032E
:101E70000000000A240631030101020200092403C4
:101E800004020600310009040200000102000009FA
:101E90000402010101020000072401020301000BFA
:101EA0002402010202100144AC0009058309B400B8
:101EB00001000007250100000000090403000001E3
:101EC00002000009040301020102000007240103CB
:101ED0000301000B2402010202100144AC000905B9
:101EE0000305B40001008407250100000000090576
:101EF000841103000105000009021B01060100C056
:101F0000320904040001030101000921110100014B
:101F1000223F0007058503080001090400000203B1
:101F200000000009211101000122210007058203A0
:101F30004000010705020320000209040500010317
:101F40000000000921110100012228000705860375
:101F5000080004080B01030101000009040100004E
:101F6000010100000A240100013E000202030C24CA
:101F7000020102060002030000000924030201011D
:101F80000001000C24020301010002030000000A0A
:101F900024063103010102020009240304020600A1
:101FA00031000904020000010200000904020101DD
:101FB00001020000072401020301000B24020102B8
:101FC00002100144AC0009058309B40004000007B5
:101FD00025010000000009040300000102000009BF
:101FE0000403010201020000072401030301000BA6
:101FF0002402010202100144AC0009050305B400EB
:102000000400840725010000000009058411040074
:10201000040700000A060002000000400100010061
:1020200000000000000000000000000000000000B0
:1020300000000000000000000000000000000000A0
:102040004FF08442F8B5936955691D400DD0244F77
:102050000126956195FAA5F4B4FA84F457F8243072
:1020600006FA04F49847A543F4D11E4A93695569CA
:102070001D400DD01C4F0126956195FAA5F4B4FAC8
:1020800084F457F8243006FA04F49847A543F4D1B1
:10209000164A936955691D400DD0154F012695616B
:1020A00095FAA5F4B4FA84F457F8243006FA04F447
:1020B0009847A543F4D10F4A936955691D400ED046
:1020C0000D4F0126956195FAA5F4B4FA84F457F8FA
:1020D000243006FA04F49847A543F4D1F8BDF8BDBE
:1020E0004C1E002000400042CC1E00200080004218
:1020F0004C1F002000C00042CC1F002010B5054C32
:10210000237833B9044B13B10448AFF300800123A3
:10211000237010BDE02B00200000000044DC000014
:10212000084B10B51BB108490848AFF300800848B8
:10213000036803B910BD074B002BFBD0BDE810406E
:10214000184700BF00000000E42B002044DC000022
:10215000C02600200000000010B504460CF0F6F97F
:10216000204610BD38B50520194D0AF09BFB0446EA
:1021700006200AF097FB2B68164A40EA440003F059
:102180000703C0B202EB83031B5C2B602B68DA06EB
:1021900011D42B689B0600D438BD0F4A4EF2EA409A
:1021A0001368013B13600BF065FE4EF2EA40BDE898
:1021B00038400BF005BF084A4EF2E940136801337E
:1021C00013600BF057FE4EF2E9400BF0F9FEE0E72A
:1021D000C4340020D00900205833002010B400235C
:1021E000044612486172226120602372E36041B1AB
:1021F000194600E0226942F823100133627A9A42BC
:10220000F8DC0B4B1A680AB90DE01A465369002B2B
:10221000FBD1546100232046A3726361A380E38055
:102220005DF8044B70471C60F4E700BF400B0020D2
:102230001031002010B5094C204609F0C9FD204698
:10224000012109F00BFB00222046114609F002FB98
:1022500020460121BDE8104009F006BB5C33002098
:102260000E4B1968012910B5044613D00122002134
:102270000B4809F0FDFA44B1214600230222084828
:102280000CF0C6FA06480CF0B3FA0548BDE8104059
:102290000CF0AEBA024809F0E7FAECE7E4160020C9
:1022A0005C3300202DE9F0410C2125480DF0C4FCE1
:1022B00000200221234F80460AF0FAFA0120022171
:1022C000214D06460AF0F4FA022104200AF0F0FA41
:1022D000022105200AF0ECFA022106200AF0E8FAB1
:1022E0001A4A1B4B0520C2F800801E600AF0DAFA79
:1022F000044606200AF0D6FADFF85CE040EA440023
:10230000144B39460422CEF800000520C3F80080A3
:102310000AF010FB3946042206200AF00BFB334674
:1023200028463C22022109F0C1FD284609F036FF6B
:102330004FF47A700AF0E4F9BDE8F041FFF77ABF94
:1023400000002020450100005C330020FC2B002011
:10235000E4160020C4330020C43400202DE9F04FDF
:10236000002183B08E4809F01BFD0A2200218D4810
:1023700009F074FF0A2201218B4809F06FFF0A223D
:1023800004218A4809F06AFF894A8A4900231068B3
:10239000894A8A4C08601268894963722160236106
:1023A0002372E3600AB9F5E01A465369002BFBD1AA
:1023B00054610027834B844E4FF4803A7F484FF49A
:1023C0000049676147F6FF7BA780E780A77223601B
:1023D0000CF024FB06F11C02012130467B4DFFF777
:1023E000FDFE7B4BDFF8108205F11C0200930121FA
:1023F000784B2846C6F818A03360FFF7EFFE754B00
:1024000008F11802012140462B60C5F818A0FFF71B
:10241000E5FE009B0121DFF8C4A103F11802184674
:102420006D4BA8F82090C8F80030A8F81EB0FFF750
:10243000D5FE009B0AF1180E67494FF0020CA3F875
:1024400020903A46196038465D49D146A3F81EB03F
:10245000CAF8001071468AF80870CAF80C708AF839
:1024600009C0CAF810E001E0D9F8101041F82200C4
:1024700001329AF80910594F9142F5DC4E4A116821
:1024800009B98AE011464A69002AFBD1C1F814A0B3
:102490000027DFF868B1524A4FF001094F48CAF8E7
:1024A0001470AAF80470AAF806708AF80A700193EA
:1024B000CAF8002000F06CFD58468BF808708BF8C5
:1024C0000970CBF80C708BF810708BE850000CF092
:1024D00009F844495846444A0CF0ACFD434ADFF839
:1024E00020B110465772D760177482F80890009296
:1024F00082E830000BF0F6FF009A3A4910463A4A5B
:102500000CF098FD3A4C58468BF808708BF809701F
:10251000CBF80C708BF810708BE840040BF0E2FFE6
:10252000314A304958460CF085FDDFF8D8B02046D6
:1025300027726772E760277484E840010BF0D2FFCE
:10254000294A284920460CF075FD5846294C8BF83D
:1025500009908BF80870CBF80C708BF810708BE832
:1025600020040BF0BFFF204A1E4958460CF062FDC4
:10257000019B20462772256063606772E7602774BD
:102580000BF0B0FF2046184A164903B0BDE8F04FE3
:102590000CF050BD084B1C600BE7176078E700BFDC
:1025A0005C330020283300203833002048330020DB
:1025B000CC3400209833002010310020D03400208B
:1025C000400B0020A40B0020E8320020083300203C
:1025D00064340020B00B0020200C00209C3300202D
:1025E000BC0B002039010000E0160020DC33002085
:1025F000043400202C34002040340020C833002054
:10260000F03300201834002070B50022134C064629
:102610000D462046114609F01DF9204602221049B8
:102620000CF0D0F80023314620460A220CF0F0F8D6
:10263000204600221F2109F00DF9204602220949F7
:102640000CF0C0F82946204600230A220CF0E0F8DE
:102650002046BDE870400CF0CBB800BF5C330020D2
:10266000FC100020001100202DE9F0411A4D88B027
:10267000884686086C46194F0FCD0FC495E80F00A9
:1026800084E80F003846012109F0EEF840460DF0CD
:1026900087F84146024638460CF094F83846012245
:1026A000002109F0E5F8072E08AB28BF072603EB49
:1026B000860656F8204C20460DF072F82146024658
:1026C00038460CF07FF838460CF092F8384608B0DF
:1026D000BDE8F0410CF08CB8800300205C33002092
:1026E000AB4B5A68F0B583B0002A47D193ED027A1C
:1026F000DFEDA86AB8EEC77A9FEDA15BB7EEC77AA7
:1027000027EE057BB7EEC77BB4EEE67AF1EE10FA62
:1027100040F30781A04AA14B9361A14C0125A14838
:1027200022680168A04E521AA049B361C82A0D6000
:1027300002D99F4B1D686DB39E4809F0BBFD9E48B2
:1027400009F0B8FD9D4809F0B5FD9A4809F0D2FDA1
:10275000002840F0BA80984809F0CCFD002840F0ED
:10276000C280964809F0C6FD30B1914C2568002D15
:1027700000F0C2800023236003B0F0BD864B00222E
:102780009FED8F7A9A61F0EE477AFEEEC87A17EEE7
:10279000903AC2E772B68B4B1A7F02F0FF0602B185
:1027A0001D7762B6002E75D072B6874D2A7F02F073
:1027B000FF060AB100222A7762B6002E6AD022688C
:1027C000002602600E6072B647F6FF774FF40040B5
:1027D000B3F91E20B3F92010DF83188462B6002AF3
:1027E00081EAE173DFED6B4AA3EBE173B8BF5242BC
:1027F0009342B8BF134607EE903AF8EEE77A9FEDA2
:10280000625B87EEA46AB7EEC66A26EE056BFCEE45
:10281000C67BCDED017A9DF8044072B6B5F91E3045
:10282000B5F92010EF83288462B683EAE372A2EB45
:10283000E37281EAE173A3EBE1739342B8BF1346FD
:1028400007EE903AF8EEE77A87EEA47AB7EEC77A09
:1028500027EE057BFCEEC77BCDED017A9DF8045099
:10286000FFF7E8FC324620462946FFF7CDFE5748E1
:102870000BF0BEFF564B1B68002B4BD12046554931
:10288000FFF7F2FE28465449FFF7EEFE4F4809F0E5
:1028900085FC51E70B68012B7FF44EAFFFF7CAFCB4
:1028A000002210461146FFF7AFFE48480BF0A0FF8C
:1028B000474B1C68002C54D120464649FFF7D4FEF4
:1028C00020464549FFF7D0FEE0E74EF2EA400BF024
:1028D000D1FA4EF2EA400BF073FB374809F00AFDDB
:1028E00000283FF43EAF4EF2E9400BF0C3FA4EF23F
:1028F000E9400BF065FB34E7FFF79CFC334809F037
:102900004DFC334B01211A6821608A4226DD1D608F
:1029100003B0F0BD2046FFF7A3FC2846FFF7A0FC5C
:10292000B4E7DFED2E7AB4EEE77AF1EE10FA1FD5B8
:102930002B4ADFED187A184BB4EEE77A9A61F1EE84
:1029400010FA09DCDFED257AB4EEE77AF1EE10FA41
:102950007FF519AF224BE0E6104BDEE60A441A6021
:102960000AE70020FFF77CFC0020FFF779FC8DE7E9
:10297000F0EE477AFEEEC87A17EE902AD9E700BF4C
:10298000101010101010703F00000000000069408F
:10299000001A002000FEFF46E83200200000FF7F02
:1029A000CC3400209833002008330020B4200020CD
:1029B000FC2B00202833002038330020483300202F
:1029C0000000000040340020643400205C3300200C
:1029D000E4160020041100200811002000FEFFC6AC
:1029E000000001802DE9F04F00F5807EB1E8A00ADB
:1029F000B2E84015C5EA0643C6EA2544C7EA0845D9
:102A0000C8EA2746C9EA0A47CAEA2948CBEA0C4974
:102A1000CCEA2B4AA0E8F8078645E7D1BDE8F04F9D
:102A200070474FF000022DE9F00F00F5807C00BFE9
:102A3000B1E8A00AC5EA0203C2EA2544C7EA0205D2
:102A4000C2EA2746C9EA0207C2EA2948CBEA0209D4
:102A5000C2EA2B4AA0E8F8078445E9D1BDE8F00FA7
:102A600070474FF000022DE9F00F00F5807C00BFA9
:102A7000B1E8A00AC2EA0543C2EA0504C2EA074572
:102A8000C2EA0706C2EA0947C2EA0908C2EA0B49D4
:102A9000C2EA0B0AA0E8F8078445E9D1BDE8F00FC7
:102AA00070472DE9F00F089C00F5007B51F8045B9E
:102AB00053F8046BC5EA0647C6EA254952F8045B99
:102AC00054F8046BC5EA0648C6EA254AA0E8800720
:102AD0008345EBD1BDE8F00F704700BF70B5002112
:102AE00006460BF0D1FCC0B1031D00F58275B6F9A6
:102AF0001E40B6F9201033F9022B9442A8BF1446A9
:102B00009142B8BF11469D42F5D80123F483318428
:102B10003377BDE870400BF073BC70BD10B5044650
:102B20000BF0C2FD204610BD024A034903480CF0D9
:102B300081BA00BFE0160020FD0A0000A432002088
:102B4000024A034903480CF075BA00BFE0160020A2
:102B5000FD0A00003C320020024A034903480CF001
:102B600069BA00BFE0160020FD0A0000883100208D
:102B7000024A034903480CF05DBA00BFE01600208A
:102B8000FD0A0000B0310020024A034903480CF05E
:102B900051BA00BFE0160020FD0A000044320020B8
:102BA000024A034903480CF045BA00BFE016002072
:102BB000FD0A00004C320020024A034903480CF091
:102BC00039BA00BFE0160020FD0A00006432002080
:102BD000024A034903480CF02DBA00BFE01600205A
:102BE000FD0A000090310020024A034903480CF01E
:102BF00021BA00BFE0160020FD0A0000B831002015
:102C0000024A034903480CF015BA00BFE016002041
:102C1000FD0A000054320020024A034903480CF028
:102C200009BA00BFE0160020FD0A0000983100201C
:102C3000024A034903480CF0FDB900BFE01600202A
:102C4000FD0A0000C031002070B584692CB3B4F5D2
:102C5000803F06464FF0000125D00BF021FC0546D1
:102C600000B3011D00F582700B6834FB03F234FBE6
:102C700013F302F30F0203F30F03C2EA034341F815
:102C8000043B8842F0D83046002229460BF0E2FB94
:102C90002846BDE870400BF0B3BB21460BF0F4FBB7
:102CA0000028F6D170BD0BF0EFFB04460028F9D0E8
:102CB0003046214600220BF0CDFB2046BDE8704097
:102CC0000BF09EBB494B2DE9F04F1A6883B0484C7E
:102CD000197904F580751368464AAB42D17709D259
:102CE000454B1B78002B4CD0444B40222C4605F51D
:102CF00080751A60424BDFF818B1D3F80080DFF816
:102D000014A1DFF81491DBF80030BAF80060B9F8CC
:102D10000070B8F1000F00D023BBB8F1000F34D021
:102D200008F104012046019301EB46014036FFF70C
:102D300078FE019B24F01F04BFF34F8F314A1460CB
:102D40002034AC42FBD3BFF34F8FBFF36F8F7F2E86
:102D500034D8AAF800607F2F22D8A9F8007003B0F9
:102D6000BDE8F08F1A1D08F104012046019302EB23
:102D70004702403701EB46014036FFF733FE019B27
:102D8000D8E72C4605F58075B4E72BB3191D20460E
:102D9000019301EB47014037FFF763FE019BC9E751
:102DA00000241846A9F800400BF02AFB164B1A68BD
:102DB0001C60CBF8002003B0BDE8F08F0024404633
:102DC0000193AAF800400BF01BFB104A0C4B116852
:102DD00014601960019BBEE719464FF480722046CB
:102DE00001930CF05BFC019BA4E700BFD8310020ED
:102DF000400C202000800E401635002008E200E044
:102E0000C831002070EF00E0D4310020CC31002028
:102E1000D03100200435002006350020F8B500210F
:102E200004460BF031FB80B172B61C4A1368002BCC
:102E300029D01B490D6805B31A4E0027156008609C
:102E4000378062B618460BF0DBFA204601210BF002
:102E50001BFB88B172B6144A1368CBB113490C68D6
:102E600074B1134D0026146008602E8062B61846B7
:102E7000BDE8F8400BF0C4BAF8BD086062B6E4E7FC
:102E8000086062B6F8BD074910600B8062B6DCE7E7
:102E9000074910600B8062B6F8BD00BFC831002042
:102EA000CC31002004350020D0310020D431002066
:102EB00006350020F8B52C4C2C4AE36F43F4402330
:102EC000E3679368002B46DBD2F88830002B42DBA7
:102ED000002342F210724FF40C6105461C200CF0E6
:102EE000B3FEE169224A21F440612248224B41F4B9
:102EF0000061E161A16A0A4042F0CE02A26242682A
:102F0000134043F4002343602DB91C4B0322C3F844
:102F10002021C3F82421194A0326144B0025C2F8A6
:102F2000286101244FF480301549164A164F174E78
:102F30001D66DC601F6158619961DA61C3F8E05079
:102F4000C3F88C40C3F89060C3F89400C3F898109D
:102F5000C3F89C20F8BD30B9084B0322C3F82021E8
:102F6000C3F82421F8BDF8BD00C00F400040384030
:102F700000FEFFFF00C00A40F8FFF7FF00801F407F
:102F80001B1F0100001F1F1F010000470100000759
:102F9000F8B5274D00240121264E2846264F0BF078
:102FA00033FB264A264B204614601C60FFF782FF45
:102FB000244B0322022040F20111C3F880214FF478
:102FC00080722B684FF0060E1E601F4EDA829880CA
:102FD000DA83D980DE6029791C4A1D4EA3F81CE0F3
:102FE00098601F619C829C611A4842F821401A4BEC
:102FF00042F821602A791949C276D3F88820184FFF
:1030000042F01042174C184EC3F8882099600BF01C
:10301000DBFA2B790122387003F01F0103F1100550
:103020005B118A40114944F8256041F82320F8BD1E
:10303000D8310020400C202022403840C8310020E8
:10304000D031002000801F4000FEFFFF00C00E4076
:103050001400008000800E400040384001000090C5
:103060001635002000240020A50C000000E100E03F
:10307000024A034903480BF0DDBF00BFE016002001
:10308000FD0A0000D8310020024A034903480BF032
:10309000D1BF00BFE0160020FD0A00002C32002046
:1030A000024A034903480BF0C5BF00BFE0160020E9
:1030B000FD0A00006C320020024A034903480BF06D
:1030C000B9BF00BFE0160020FD0A000074320020E6
:1030D000024A034903480BF0ADBF00BFE0160020D1
:1030E000FD0A000094320020024A034903480BF015
:1030F000A1BF00BFE0160020FD0A0000E031002063
:10310000024A034903480BF095BF00BFE0160020B8
:10311000FD0A00007C320020024A034903480BF0FC
:1031200089BF00BFE0160020FD0A00009C3200208D
:10313000024A034903480BF07DBF00BFE0160020A0
:10314000FD0A00005C320020024A034903480BF0EC
:1031500071BF00BFE0160020FD0A0000843200208D
:10316000024A034903480BF065BF00BFE016002088
:10317000FD0A00008C320020024A034903480BF08C
:1031800059BF00BFE0160020FD0A0000E831002012
:10319000024A034903480BF04DBF00BFE016002070
:1031A000FD0A00003432002000207047704700BF45
:1031B000036D0BB101207047406D003018BF012036
:1031C000704700BF10B50446806D18B10BF074FF56
:1031D0000023A365236D2BB104F11800BDE8104056
:1031E00005F0AEBB636D002BF6D110BDF0B500232A
:1031F00095B04FF47A74234F1A460546183104A847
:103200008DF804308DF80C301293139302940097CC
:1032100005F0EAFB129B53B35C2000260BF040FB49
:103220009DF804300446184A04A918302373029B01
:1032300022602361154A9DF80C30A26023756660F8
:1032400005F03CFB63684FF47A71114A0133A760C3
:10325000A6652E712E732C616360A9602A600D4BE8
:1032600004A8009305F06CFB284615B0F0BD139B35
:10327000002BD1D1064A2B71AC602B732B612A60D5
:10328000EDE700BF580C00207C0C0020D80C00207B
:103290002C0C00201C0B0020036D13B1184603F00A
:1032A00045BD406D08B101F09FBA4FF0FF30704747
:1032B000836C00B583B063B1184601220DF107019C
:1032C00003F066FC01280CD19DF8070003B05DF8FF
:1032D00004FBC06C28B101220DF1070101F0AAF92D
:1032E000F0E74FF0FF30F1E7036DF0B50C4683B027
:1032F0002BB318460DF1060201A903F07FFAD8B1ED
:10330000BDF80430BDF8062003B9AAB102F01F06CB
:10331000C3F343155912C2F3451703F01F03760098
:10332000013D01F5EA61D21226706571A171237128
:103330006770A27003B0F0BD002003B0F0BD406D17
:103340000028F9D00DF1060201A901F0F3F8D6E743
:10335000036D9BB11A7812F0700F00D1704710B551
:1033600004460021184603F037FE606D28B10022A4
:103370000023BDE8104001F04DBA10BD406D00289B
:10338000ECD090F8313013F0500FE7D0002200233A
:1033900001F040BA38B5846D0CB1204638BD054601
:1033A0004FF480700BF080FE0146A86580B1286D57
:1033B0000C7028B14FF4807205F0B2F8AC6DECE7F8
:1033C000686D40B14FF4807202F03EFEAC6DE4E7F0
:1033D000024CAC65E1E70C46DFE700BF1A35002080
:1033E0008A79A2F150031B0621D402F26C72F0B567
:1033F0004B7985B0046D01330D798E784F78DBB24F
:1034000009784CB10391204602970421019600955A
:1034100003F002FF05B0F0BD406D0028FAD0039123
:1034200004218DE8E00001F0FFFF05B0F0BD0020B1
:10343000704700BFD0B5046D8CB1012B08BF002AC6
:1034400001D30020D0BD1146204603F0C5FD002861
:10345000F7D0204603F04CFF0028F2D0D0BD446DD9
:10346000002CEED0204601F0D5F90028E9D0204606
:10347000BDE8D04002F0A6B8036DF0B50C4683B0AD
:103480002BB318460DF1060201A903F0C7F9D8B114
:10349000BDF80430BDF8062003B9AAB102F01F063A
:1034A000C3F343155912C2F3451703F01F03760007
:1034B000013D01F5EA61D21226706571A171237197
:1034C0006770A27003B0F0BD002003B0F0BD406D86
:1034D0000028F9D00DF1060201A901F03DF8D6E768
:1034E000036D13B1D86900217047436D13B118699A
:1034F0005969704718461946704700BF036D13B1EC
:10350000586900217047436D13B193E80300704779
:1035100018461946704700BF036D13B1184603F0F3
:1035200037BB406D08B101F085B84FF0FF307047F0
:10353000836C13B1184603F0F9BBC06C08B101F0FD
:1035400053B94FF0FF307047036D33B11B7813F060
:10355000700F14BF012000207047406D30B190F80B
:10356000313013F0500F14BF01200020704700BF0E
:103570008A79A2F150031B0621D402F26C72F0B5D5
:103580004B7985B0046D01330D798E784F78DBB2BD
:1035900009784CB1039120460297022101960095CB
:1035A00003F03AFE05B0F0BD406D0028FAD003915B
:1035B00002218DE8E00001F037FF05B0F0BD0020EA
:1035C000704700BF036963B11A68074992698A426C
:1035D00008D1186D08B103F019BE586D08B101F09B
:1035E00097BD704718461047CD150000036D13B105
:1035F000184603F00BBE406D08B101F089BD70475D
:10360000836C13B1184603F001BEC06C08B101F021
:103610007FBD704703698BB10E4810B41C68E46825
:10362000844211D1186D18B15DF8044B03F09CBEB3
:10363000586D28B15DF8044B02F036B80020704791
:1036400000205DF8044B7047184623465DF8044B94
:10365000184700BF79160000036973B11A6808495A
:1036600052698A4207D1186D08B103F05FBB586DEB
:1036700018B101F0B9B8184610474FF0FF30704745
:1036800079120000836C13B1184603F06DBEC06C54
:1036900008B102F009B87047036D13B1184603F082
:1036A00063BE406D08B101F0FFBF704700B5836C89
:1036B00083B08DF8071043B1184601220DF10701C0
:1036C00003F052FE03B05DF804FBC06C0028F9D093
:1036D00001220DF1070101F0E7FF03B05DF804FBE3
:1036E00010B5036982B08DF80710BBB11968104A94
:1036F000CC68944215D1186D30B101220DF107014B
:1037000003F032FE02B010BD586D0028FAD001223D
:103710000DF1070101F0C8FF02B010BD184602B05C
:1037200010BD01220DF107011846A04702B010BDDF
:1037300079160000036923B31968134A10B58C6821
:1037400082B0944214D1186D48B101220DF10701E5
:1037500003F01EFA90B19DF8070002B010BD586D3D
:103760000028F8D001220DF1070100F063FFF1E716
:10377000184601220DF10701A047EBE74FF0FF309B
:10378000EBE74FF0FF307047F9140000826C62B134
:10379000137803F0080303F0FF000BB3D3695069FB
:1037A000181A48BF6FF000407047C16CC9B191F85A
:1037B000313003F0080303F0FF008BB1D1E904239B
:1037C000D1E9000130B4101A4FF000056FF0004449
:1037D00063EB01018D4208BF844200D2204630BC19
:1037E00070470846704700BF026D62B1137803F05E
:1037F000080303F0FF000BB3D3695069181A48BFE0
:103800006FF000407047416DC9B191F8313003F05D
:10381000080303F0FF008BB1D1E90423D1E90001D3
:1038200030B4101A4FF000056FF0004463EB010153
:103830008D4208BF844200D2204630BC7047084603
:10384000704700BF006900282FD00368184A1B6921
:1038500093420ED1026D6AB1137803F0080303F0AE
:10386000FF0013B3D3695069181A48BF6FF00040C6
:1038700070471847416DC9B191F8313003F0080322
:1038800003F0FF008BB1D1E90423D1E9000130B48A
:10389000101A4FF000056FF0004463EB01018D42F8
:1038A00008BF844200D2204630BC704708467047AB
:1038B000C9170000D0B4039C16461F4634B1012C32
:1038C0001ED0022C0DD00020D0BC7047046DDCB19E
:1038D000012B08BF002AF6D220461146D0BC03F0C7
:1038E0007BBB036DB3B1DA69B61847F10007012F4E
:1038F00008BF002EE7D231461846D0BC03F06CBB9F
:10390000036D93B15A69EFE7406D0028DBD0D0BC5E
:1039100000F080BF436D002BD5D01846D3E90423B7
:1039200092197B41D0BC00F075BF436D002BCAD00B
:103930001846D3E9002392197B41E8E738B50446DD
:103940000C4B806D236018B10BF0B6FB0023A36510
:10395000236D04F118054BB1284604F0F1FF064B26
:103960002846A36004F0ECFF204638BD636D002BB1
:10397000F2D1F4E77C0C00201C0B002038B5044683
:103980000E4B806D236018B10BF096FB0023A365EE
:10399000236D04F118056BB1284604F0D1FF084BE4
:1039A0002846A36004F0CCFF20465C210AF07AFF91
:1039B000204638BD636D002BEED1F0E77C0C002073
:1039C0001C0B002070B5254B0546046903601CB133
:1039D0006668013E66600EB1284670BD2368204AC5
:1039E000DB6A93422CD1A06D10B10BF065FBA6658C
:1039F000236D5BB304F1180004F0A2FF2C69002CC6
:103A0000EAD02368174A5B6893421CD1164BA06D1D
:103A1000236018B10BF050FB0023A365236D04F164
:103A20001806BBB1304604F08BFF104B3046A36044
:103A300004F086FF20465C210AF034FF284670BD62
:103A400020469847DAE720469847C5E7636D002B84
:103A5000D0D1D3E7636D002BE4D1E6E72C0C002036
:103A6000A51100005D1900007C0C00201C0B00203B
:103A700070B5294B0446056903601DB16E68013EAF
:103A80006E602EB1204614210AF00CFF204670BD56
:103A90002B68224ADB6A934230D1A86D10B10BF03B
:103AA0000BFBAE652B6D7BB305F1180004F048FFEE
:103AB0002569002DE6D02B68194A5B68934220D116
:103AC000184BA86D2B6018B10BF0F6FA0023AB650C
:103AD0002B6D05F11806DBB1304604F031FF124BB7
:103AE0003046AB6004F02CFF28465C210AF0DAFE79
:103AF000204614210AF0D6FE204670BD284698477D
:103B0000D6E728469847BDE76B6D002BCCD1CFE7B1
:103B10006B6D002BE0D1E2E72C0C0020A51100001A
:103B20005D1900007C0C00201C0B002010B4047FE9
:103B30004160022CC26003D05DF8044B0AF0CEBD98
:103B400083685DF8044B184770B440F2012504689F
:103B500025611BB31E46F1B10D780131013B65664D
:103B6000256FAD0706D4656F013EEDB212B1157039
:103B7000013204686569ED07F2D5002BEBD16EB117
:103B800001680B6F9B07FCD44B6FDBB20AB113705B
:103B90000132013EF3E790F83C50DFE770BC70471C
:103BA000F0B5304C304BA06C656C0179226CD97744
:103BB0002979197701791977FAB1B2F5004F18D23E
:103BC0002B6892B2D98B0E043BD4DA83D98B89B29D
:103BD000D9820368D98B09042CD4DA830021DA8BCB
:103BE00092B2DA82216402791F4BDA762A79DA7688
:103BF000F0BD1E4B13442364F5E7E06C0F252368EA
:103C000040F2013E01684FF47C579D6503260D6824
:103C10001749DA618D42C3F810E05F6184F83D60B6
:103C200017D1037F4260022BC26017D0BDE8F0407D
:103C30000AF054BDD98BC2F3080201F47E410A4355
:103C4000CBE7D98BC2F3080601F47E413143D98317
:103C5000BCE72B461146BDE8F04018478368BDE835
:103C6000F0401847F016002000800E400180FFFF52
:103C70000D1B00004368F0B593E88200DFF8FCE11B
:103C8000B8260A680225754C22EA0702744F0A60BA
:103C9000DEF818201440734A27430F24CEF818701A
:103CA000077C1F443F7C02EB0717BF683E60477CE0
:103CB0001F4497F8207002EB0717BF683E60877CAF
:103CC0001F4497F8307002EB0717BF683E600F681B
:103CD0005E683E430E60017C5E1803EB8101367C1A
:103CE0004F6902EB061149680F60417C5E1803EBD7
:103CF000810196F820604F6A02EB061149680F6057
:103D0000817CD3F83CE05E1803EB8101DF6996F813
:103D10003060496B02EB0612DE6A52681160817CEA
:103D20000268194491F83810CEF80010017C19444B
:103D3000097E3960417C0B4493F82830336015616B
:103D40009465C37C002B29D072B6C37CDC0706D5F2
:103D5000454A436911680B4083621360C37C99072D
:103D600006D5424A836911680B40C3621360C37C65
:103D70005A0706D53E4AC36911680B4003631360B6
:103D8000C37C1F0706D53B4A036A11680B40436397
:103D90001360C37CDE064BD462B60268364D83687E
:103DA000AB424CD0354B85609B69354CC3F3011653
:103DB000C3F38261334B54F826400131B4FBF1F177
:103DC000A3FB01431B0D29D1C36000260325072453
:103DD000012116615562136414661161C37CE3B15D
:103DE000DD0703D5284B826A1A60C37C9C0703D584
:103DF000264BC26A1A60C37C590703D5244B026B59
:103E00001A60C37C1A0703D5224B426B1A60C37C2D
:103E1000DB0602D5826B204B1A60F0BDB1FBF3F1DB
:103E2000A94288BF0133B3F5817F0AD31B4BCBE78F
:103E30001B4A436A11680B4083631360ACE7C36895
:103E4000C3E7022B98BF0023BED9023B5C082104C4
:103E500043EA042301F47F010B43B5E7CFFFFFE3FF
:103E6000100000081C0E002080E100E084E100E06A
:103E700088E100E08CE100E000093D0000C00F4057
:103E8000080E002083DE1B4300E100E004E100E0B7
:103E900008E100E00CE100E010E100E0FF7F7F00BE
:103EA00090E100E00BB1FFF74FBE70472DE9F843FA
:103EB000DDF82080099FB3B116460C46054603EB9A
:103EC000010904E020460134C0474C450BD02B6863
:103ED000324621462846DB6898473A463146002854
:103EE000F0D1BDE8F8830120BDE8F8832DE9F8435F
:103EF000DDF82080AAB11F460C46054602EB0109F9
:103F000001E04C450DD02B68414620461E6AB8475B
:103F10002146024628460134B0470028F1D1BDE8C9
:103F2000F8830120BDE8F8834FF0FF30704700BFF1
:103F3000704700BF012BF0B5054695B03BD0022B72
:103F400001F1040140F20223684618BF002304F087
:103F5000E3FD129B002B37D05C2004AF0AF0A0FCDD
:103F60009DF8042004461F4B0026DFF888E02273EA
:103F70003946029A1830A3609DF80C3022612375EF
:103F8000C4F800E0666004F099FC63684FF47A714D
:103F900015480133154AA6652E712E732C61A06059
:103FA0006360A9602A60124B3846009304F0C8FC95
:103FB000284615B0F0BD44F202230431684604F0EF
:103FC000ABFD129B002BC7D1139B002BC4D14FF428
:103FD0007A71064A2B7104AF2B732B61A9602A609A
:103FE000E1E700BFD80C0020580C00202C0C00206A
:103FF0001C0B00207C0C002030B5D0F884448FB01E
:10400000A4B100250A466846214601238DF80050D8
:104010008DF801508DF8025002F090FD08B90FB0F4
:1040200030BD684603F044FE0FB030BDD0F88804C0
:104030000028F4D00A460123014668468DF8314035
:104040008DF832408DF8334000F0C2FE0028E6D0F3
:10405000684600F027FF0FB030BD00BF30B5D0F884
:1040600084448FB07CB100250A46012304F58961A0
:1040700068468DF800508DF801508DF8025002F01E
:104080008FFC0FB030BDD0F888040028F9D00A4664
:10409000012300F5896168468DF831408DF8324082
:1040A0008DF8334001F0FCF80FB030BD30B5D0F8DA
:1040B00084448FB074B100250A46684621462B46D9
:1040C0008DF800508DF801508DF8025002F036FD49
:1040D0000FB030BDD0F888040028F9D00A46234636
:1040E000014668468DF831408DF832408DF83340F6
:1040F00000F06EFE0FB030BD38B50546D0F8840430
:10410000C0B1C469013C04F011FBD5F88434241A11
:1041100043B198794FF4007303FA00F080B2A0FB2A
:10412000040138BDD5F8883463B1D3F83C04A0FB52
:10413000040138BDD5F8880420B1D0F8304402F02D
:104140008FF9E2E70020002138BD00BF30B5D0F87C
:1041500084448FB0A4B100250A46684621462B4608
:104160008DF800508DF801508DF8025002F0E6FCF9
:1041700008B90FB030BD684602F000FF0FB030BD87
:10418000D0F888040028F4D00A4623460146684641
:104190008DF831408DF832408DF8334000F018FE34
:1041A0000028E6D0684600F0DDFE0FB030BD00BF4D
:1041B00070B5D0F884448EB01646C4B1002504F51D
:1041C00089640A46684621462B468DF800508DF8D2
:1041D00001508DF8025002F04BFC08B90EB070BDD2
:1041E00032462146684602F0D7FD0EB070BDD0F8C9
:1041F00088040028F2D000F589650A4623466846FF
:1042000029468DF831408DF832408DF8334000F06A
:1042100061FD0028E2D032462946684601F0ACF83C
:104220000EB070BDD0F884244AB191794FF4007378
:10423000D0698B4001389BB2A3FB00017047D0F8D6
:10424000882432B1D2F83034D2F83C04A3FB000108
:1042500070470020002170472DE9F041D0F89044CC
:1042600092B04CB11F462368054620469B6998478B
:10427000B0F5405F064603D8002012B0BDE8F081DB
:104280004FF400700AF010FF80460028F4D0B6F119
:10429000806F07AE02463B46214630463ED803F0CB
:1042A000E5FF044640460AF007FF002CE4D095F8ED
:1042B000BC44FF2C36D095F8BD8401AAD5F8C0C403
:1042C00004ABD5F8C4E405F594678DF804408DF887
:1042D0000580CDF808C0CDF80CE007CA83E80700D8
:1042E0008DF81180CDF814C0CDF818E08DF810408D
:1042F00093E8070086E80700384696E80E0004F0C9
:104300009FFD95F8B734C5F890741BB93946281D40
:1043100004F09CFB012012B0BDE8F08101F09CFB91
:104320000446BFE705F2944385F8BC4495F8C814E9
:104330001C46184605F04AFEC5F89044204605F094
:10434000B9F90028E6D1D5F89014281D04F07EFBB9
:10435000E0E700BF2DE9F041D0F890648AB0044650
:10436000A6B190F8CC34BBB190F8CD34FE2B4CD034
:10437000336806A930469B6B984784F8CC040AB092
:10438000BDE8F081384B9B689B0309D4002084F87A
:10439000CC040AB0BDE8F08190F8CD34FE2BF1D00A
:1043A00094F8BC64FF2E48D094F8BD8403ADD4F8D3
:1043B000C0C406ABD4F8C4E404F594678DF800607B
:1043C0008DF80180CDF804C0CDF808E09DE8070025
:1043D00085E807008DF80D80CDF810C0CDF814E009
:1043E0008DF80C6095E8070083E8070038460ECB8F
:1043F00004F026FD94F8B734C4F89074002BC5D1AE
:104400003946201D04F022FBC1E7336830465B6C5F
:104410009847421C0546ABD048B994F8CD34FE2BE2
:10442000B4D12620032108F043FA2846AFE7012043
:1044300084F8CC040AB0BDE8F08104F2944594F805
:10444000C81484F8BC64284605F0C0FDC4F8905434
:10445000284605F02FF9002898D1D4F89014201D93
:1044600004F0F4FA93E700BF00800042F0B4164B6A
:104470000722164C0127164929261648FF251C60DD
:104480000024C3F8A0141449C3F894041846C3F8D0
:10449000AC24C3F8A81483F8B57483F8B76483F820
:1044A000CD54C3F88444C3F8884483F89C4483F80B
:1044B0009D4483F8BA4483F8C84483F8CC44074A3F
:1044C0000749F0BC0AF0B6BD002C0020FC0C00200F
:1044D000B00D0020500D002000093D00E016002026
:1044E000111F0000F0B500F1240385B005460E460B
:1044F00001AC174693E8070084E8070072012146E3
:10450000286A01F039FF012806D13A462146286A77
:1045100001F0F8FE05B0F0BD002005B0F0BD00BF11
:1045200010B5044600F0F4FD002384F8313084F81F
:10453000333010BD38B50D46144600F12401002279
:10454000006A01F0DFFE034628B1428901202A807B
:104550001B89238038BD38BD38B50D46144600F19F
:1045600024010022006A01F0CDFE034628B1C28971
:1045700001202A809B89238038BD38BD90F83120E6
:104580000AB10020704738B50D461146382204465E
:104590000BF084F840230120256284F8313084F840
:1045A000330038BDF0B40C78202C03D111F8014F42
:1045B000202CFBD00E461E4F11609160357834469A
:1045C00001362F2D18BF002D22D0A5F122041F2D5A
:1045D000E4B28CBF002101211D2C0ED90124A1427F
:1045E00013D205F0BF013C290FD05C2D0DD02E2D2C
:1045F000E4D0202DE2D09660E0E727FA04F404F03E
:10460000010484F00104A142EBD30020F0BC704708
:10461000202D01D02F2D05D114F8011F2029FBD00A
:104620002F29F9D01C601146F0BC01F071BD00BF0C
:10463000010100312DE9F04F90F8333083B0054689
:10464000DE0760D55C060E46914640F1BD80D5E997
:104650000001D5E9042310EB090A41F1000B5B4589
:1046600008BF5245C0F0B680B9F1000F74D0AA4619
:104670004C4640F2FF17FAE806012B6AD3F83824BB
:1046800002EA0008C8F3080BB8F1000F6AD150EA3B
:10469000010279D195F8312051064CBFD3F834147A
:1046A000E969A9614FEA58200239D3F82C24BC42A9
:1046B00093F845E4024401FA0EF111442ED9BBF1FE
:1046C000000F2BD1D3F81C22914227D0B4F5806F74
:1046D00061D34FF0010C4FEA54280CFA0EFEC0EBE8
:1046E0000E00804528BF804691423DD801EB08006E
:1046F000824239D203F504700191009306F0CCF8A0
:10470000009B019980BB95F832304FF0FF3043F0A9
:10471000020385F8323003B0BDE8F08F03F5047072
:10472000002206F089F80028EDD0CBF5007800EBE8
:104730000B013046A04528BFA046424607F0E4FDE5
:10474000404600214644D5E9002380185941B4EB86
:104750000804C5E9000190D10024C4EB090003B0AE
:10476000BDE8F08FA9699DE7D3F8140232464346AD
:10477000D0F800E0DEF810B0D8470028C3D04FEAE8
:10478000482800214046DDE795F83320520610D531
:10479000A969013185E7D3F8140232460368DB6862
:1047A00098470028AFD04FF4007000214FF40078F4
:1047B000C8E718465246A96901F0C0FD0028A2DBEF
:1047C0000BD02B6AA9696DE790F8313018073FF5D7
:1047D0003EAF49E7C0EB020946E795F8313013F0E8
:1047E000500FBAD18FE700BFF0B583B00122044665
:1047F00085690DF10701D0E90067FFF71BFF01286C
:10480000A5610CBF9DF807004FF0FF30C4E90067B9
:1048100003B0F0BD2DE9F04F90F831E085B00446CB
:104820008569BEF1000F36D016461F46D0E900015B
:10483000994208BF904265D056EA070330D1002361
:10484000A3610120C4E9006705B0BDE8F08F10F155
:10485000FF3241F1FF3322FA0CFC03FA08F823FA85
:104860000AFA50EA01034CEA080C4CEA0A0C4BD055
:10487000E34549D3CCEB0B0BA94604F118085D4680
:104880004246002DDDD0A169013D206A01F056FDB0
:104890000028F5DC4D460020A56105B0BDE8F08F8D
:1048A0001EF0080F27D1236A16F1FF3893F845C48C
:1048B00047F1FF39C24603930CF1090CCB4694F83B
:1048C00033905FFA8CFC19F0400FCCF120082AFAE3
:1048D0000CF2CDE900AB019BACF1200A03FA08FB16
:1048E00023FA0AF342EA0B0242EA030BAFD0E36970
:1048F0005B44A361A5E7D4E90423BB4208BFB242ED
:10490000C9D3D0E70120C8E71EF0400F02D1E36908
:10491000A361B1E7039BD3F83434F9E72DE9F04FF5
:104920008FB08146019390F831302BB991F8313036
:104930000C4613F0500F08D10023184689F8313087
:1049400089F833300FB0BDE8F08F019B154603F0B6
:104950000303012B06D0022B00F0FF80002BEBD1CC
:10496000012200E00222019B03F00803134302939B
:10497000002D40F0DD8003270026029BB34643F064
:1049800040030393202206A92046FFF753FEF0B10F
:104990002028D1D19DF81830180645D4BBF1000F5E
:1049A00004D12268D4F818A0A2F12008BB4503D294
:1049B0000BF1010B5FFA8BFB002B00F0D080202263
:1049C00006A920460026FFF735FE0028E0D1019B0E
:1049D0009905B1D5029B9A07AED5002DACD0BB4549
:1049E00080F0C6802B465E4655469A460AE020284F
:1049F000A2D11EB92268A569A2F12008DEB2B74291
:104A000040F2B380202206A92046FFF713FE731C54
:104A10000028ECD12046D4F818B000F0A9FB0028FB
:104A20008AD0C4F818B0EAE756BBBB4538BF4FF090
:104A3000000B852BA6D131463822484601260AF0C4
:104A40002DFE9DF81C309DF81920D90689F83020DC
:104A500003F0370258BF42F0080289F8312023687A
:104A6000226AA169203BC9F82020C9F82830C9F87A
:104A7000241094F83330C3F3801389F82C3081E785
:104A8000C02B29D0C12B9AD12A4606A9484601F04D
:104A9000B5FA002867D0AB89002B7FF473AFAA6802
:104AA0006B689A427FF46EAF019B1F053FF544AFE0
:104AB000019B13F4884F40F0AB8099F833309E0788
:104AC00000F1A680019B5B053FF536AF019B5804C2
:104AD00000F1BC80012035E79DF819309DF80820D1
:104AE0009B0789F8332003D59DF80C3089F83330C3
:104AF0000B99DDE90823C9F81C10DDE90C01C9E9AF
:104B00000423C9E90201002DCED09DF81B304FF0DF
:104B100000002A6929689A42A88169607FF44FAF32
:104B2000BDF81C60AB8AF61AB6FA86F6760929E754
:104B30002B69664F0E33A7FB0337D4E90023FF0828
:104B4000134307F10207FFB23FF416AF0021002222
:104B50000023A161C4E900230EE7032203E7002D2F
:104B60007FF435AFE8E606460CE75346AA461D46F5
:104B700094F833B03822002148460AF08FFDCBF379
:104B8000801B0823226A002689F82CB0C9F824A0CB
:104B9000C9F8288089F831302B68C9F820206B606B
:104BA000AE818FB307F1FF3834465FFA88F80122EF
:104BB00021464846FFF796FC834600283FF4BCAEEA
:104BC00090F90030002BFFF6B7AE202200210AF04A
:104BD00065FD002E43D0012C5ED0C1235C460BF155
:104BE0001E0A8BF80030AB8928461BB96A68AB688F
:104BF0009A4205D005F032FF24F8020FA245F2D107
:104C00000136F4B2BC42D2D3484600F081FA99E6AC
:104C100099F8313013F0110F7FF48EAE019B5D05D2
:104C20007FF554AF99F833309C077FF585AE0022AD
:104C300000234846FFF7EEFD00283FF47DAE4846CE
:104C400000F0C0FC00283FF477AE43E74846D9E9BE
:104C50000423FFF7DFFD00287FF43CAF6CE68523DB
:104C60008BF800301A4B89F830808BF801801B6874
:104C70001BB30DF113020DF1160105A89847BDF8FD
:104C80001410BDF816209DF81330ABF80A10ABF8DD
:104C900008208BF81430B3E7029BC0228BF8014048
:104CA00063F07F038BF8002089F833302B698BF891
:104CB0000330AB8AABF80430A2E745F22143ABF8EE
:104CC0000A30ABF80E30ABF8123099E78988888843
:104CD000083100202DE9F043064697B000200D462C
:104CE00096F8311001928DF851008DF852008DF830
:104CF0005300ADF8140029B9994695F8313013F0F6
:104D0000500F03D1002017B0BDE8F083137814468C
:104D10002F2B32D04FF00008214601AB02AA3046BB
:104D2000FFF740FC0028EDD0019B1B78002B39D009
:104D30002946002302AA3046FFF7F0FD0028E1D003
:104D4000344608AF06F1300E2068103454F80C1CBD
:104D50003D4654F8082C103754F8043C74450FC5F0
:104D6000F2D1206808AD3860304600F0D1F986F8FD
:104D7000318086F83380019CCEE70134019421789C
:104D80002F29FAD0B9B108A8382200212F6A054688
:104D90000AF084FC4022012310978DF851208DF8F1
:104DA0005330B7E74B4602AA29463046FFF7B6FD17
:104DB00017B0BDE8F083382230462C6A0AF06EFC4A
:104DC00040230120346286F8313086F833009AE7B8
:104DD00019B101F58961FFF77DBF0846704700BF33
:104DE000F0B490F8314024B991F8313013F0500FFD
:104DF00002D10020F0BC7047D1E90067002706F01F
:104E00001F0656EA0703F4D113462246F0BCFFF70B
:104E100085BD00BF8169F8B50446006A01B1013162
:104E2000012201F0BFF9012806462ED901230146CF
:104E3000206A1A4601F010FA074630B3A3693BB363
:104E400094F83320510612D5591C8E4226D022F0F8
:104E50004002E16984F8332005E0206A01F0B0FAED
:104E6000294690B1A3694D1C99422A46F5D34FF0CB
:104E7000FF323146206A01F0A3FA30B1A16969B16D
:104E80003246206A01F09CFA40B900273846F8BD46
:104E900094F8333043F0400384F83330A661384649
:104EA000F8BD00BF90F833309A073BD5C1692DE9B2
:104EB000F0410546A9B9002408E00378E4B203F004
:104EC0007F03037095F83030A3422DD32146012291
:104ED00028460134FFF706FB0028EED10020BDE88C
:104EE000F0815B06006A37D590F845240023D5E9A8
:104EF0000267093216F1FF36D2B247F1FF37C2F12D
:104F0000200EA2F1200426FA02F207FA0EFE27FA7A
:104F100004F442EA0E022243013201F09DF9002816
:104F2000C9D1DBE70020704700232C6A85F83130B7
:104F3000204685F8333005F0AFFC0028CED004F5CC
:104F4000047005F0A9FC0028C8D0D4F84004036818
:104F5000BDE8F041DB69184701F044FA0028AAD106
:104F6000BCE700BF90F83130D90601D4002070476B
:104F700010B5002288B000230446FFF74BFC06E082
:104F8000202819D19DF800301A0615D433B12022FB
:104F900069462046FFF74EFB0028F1D194F83330E4
:104FA0000822204643F0020384F8312084F833308D
:104FB000FFF778FF08B010BD002008B010BD00BF9B
:104FC0002DE9F043002583B00746DFF84091A8465D
:104FD000002229463846FFF785FA044630B10378A7
:104FE000C02B74D0C12B2CD0852B09D097F8323030
:104FF000002043F0010387F8323003B0BDE8F083AE
:1050000097F83130D9F8006003F03703838086B118
:105010000DF103020DF1060101A8B047BDF806200D
:10502000BDF804309DF80310A28161752282E381EE
:1050300063823A6A92F8103243F0010382F8103228
:1050400023784FEAC830A3F185060022012140EA07
:105050005808B6FA86F613FA88F376091FFA83F829
:105060000A444FEAC83303211F2A43EA58030AD8E7
:10507000A05C012A10FA83F31FFA83F801D1002EF5
:10508000EED10121ECE7013597F83030EDB2AB42BB
:105090009ED2012207F12401386A01F033F9002879
:1050A000A4D03C6AA0F80280204605F0F5FB002859
:1050B0009CD004F5047005F0EFFB002896D0D4F8DE
:1050C00040040368DB69984700288FD095E797F87C
:1050D000333013F0400F437814BF43F0020323F042
:1050E00002034370386AF969D7E904236161C4E9AE
:1050F0000223D7E90223C4E9062390F8103243F0D3
:10510000010380F8103223789BE700BF08310020AC
:1051100090F8312092B138B590F8332011060FD4B1
:10512000056A0446284605F0B7FB88B994F8323082
:10513000002043F0010384F8323038BD012070476D
:1051400002F07F0280F83320BDE83840FFF738BF17
:1051500005F5047005F0A0FB0028E7D0D5F8400461
:105160000368DB6998470028E0D0012038BD00BF04
:105170002DE9F04190F83130044659065FD480683B
:10518000236AD3F83C341844B0F1806F02D3002076
:10519000BDE8F0812046FFF73DFE0028F7D0266AE3
:1051A00096F81032DA074ED44FF0FF33002506F59B
:1051B00008784FF40072C6F81C32294686F810525F
:1051C00040460AF06BFA226AA769012692F8451454
:1051D000023FD2F82C348F401F4416FA01F310D04E
:1051E000D2F8400479194246013503681B6A984792
:1051F0000028CCD0226A92F8453406FA03F3AB4279
:10520000EED894F831305B0614D494F8333000278C
:1052100063F07F0384F83330D2F83C64D4E902238E
:10522000D4E9040192197B4180197941C4E9022330
:10523000C4E904012046BDE8F041FFF769BF006AF8
:1052400001F0B0F99CE706F5047005F025FB002895
:10525000AAD19CE710B591F8314014F0500F01D15C
:10526000002010BD40F602230446FFF757FB00283C
:10527000F6D01023204684F83130FFF779FF00285C
:10528000EED0A169002320460022E161FFF7C2FAB7
:10529000C123204684F83330BDE81040FFF738BF03
:1052A0002DE9F041064696B000200C4696F83110E4
:1052B0000192ADF814008DF851008DF852008DF870
:1052C000530029B9984694F8313013F0500F03D1A8
:1052D000002016B0BDE8F081137811462F2B34D092
:1052E00001AB02AA3046FFF75DF90028F0D0019B20
:1052F0001B78002B37D0002302AA21463046FFF747
:105300000DFB48B9B8F1000FE2D0214602AA3046A1
:10531000FFF7A0FF0028DBD0344608AF06F1300EBF
:105320002068103454F80C1C3D4654F8082C1037F3
:1053300054F8043C74450FC5F2D1206808AC3860BD
:105340003046FFF7EDF80199CAE7013101910B787A
:105350002F2BFAD0216A08A8FFF710F90028B7D040
:1053600008AC0199BCE702AA21463046FFF772FF5C
:1053700016B0BDE8F08100BFF0B590F831409DB0A7
:10538000002314F0180F8DF831308DF832308DF87D
:1053900033308DF869308DF86A308DF86B3003D07A
:1053A0000B6A046A9C4202D000201DB0F0BD044686
:1053B00040F601236846FFF78DFC0028F4D025460F
:1053C00004F1300E0EAF2868103555F80C1C3E461F
:1053D00055F8082C103755F8043C75450FC6F2D126
:1053E000286809AA04F1240338609DF8305007CAE0
:1053F00083E8070094F83330204684F8305063F097
:105400007F0384F83330FFF783FE0028CCD00021DF
:10541000022208230EA815918DF86B208DF86930B3
:10542000FFF740FDC1E700BF2DE9F04F90F8314094
:1054300083B01F4624079DF830A09DF834909DF856
:1054400038B09DF83C3004D5A2F2BC7294B27F2CE7
:1054500004D90026304603B0BDE8F08F7A1E0B2A2F
:10546000F7D80AF1FF321E2AF3D8BBF13B0F98BFE1
:10547000B9F1170F8CBF012600263B2B88BF46F0E1
:105480000106002EE5D1019305468846FFF740FE50
:10549000019B0028DDD0591013F0010F4AEA47178D
:1054A00008F0010341EA4B11B24647EA442708BF1E
:1054B0004FF0000B41EAC92918BF4FF0640B344686
:1054C000BFB21FFA89F90193002251462846FFF71F
:1054D00009F80028BDD00278852A4FD0BAD3A2F1AE
:1054E000C0010129B6D84FEAC43EA2F185030021CC
:1054F0004EEA5404B3FA83F34FF0010E12FA84F427
:105500005B09A4B27144E2034FF0030E1F2942EA83
:1055100054020AD8445C012914FA82F294B201D1EF
:10552000002BEFD14FF0010EECE70AF1010395F8E3
:1055300030205FFA83FA5245C6D2012205F12401D8
:10554000286A00F0DFFE002883D02D6A44802846B8
:1055500005F0A2F900283FF47CAF05F5047005F0D2
:105560009BF900283FF475AFD5F840040368DB6968
:105570009847064600283FF46CAF6BE795F831205A
:10558000296A02F03702019B828091F8102242F0D2
:10559000010281F8102213B1A0F81090478218F090
:1055A000020F04D080F814B0A0F80890478118F0DA
:1055B000040F04D080F815B0A0F80C90C7810278D1
:1055C00091E700BF90F833309A0718D5F0B5C56958
:1055D00083B08DB103F04003044603F0FF0683B9A6
:1055E0008169002942D10195C1612946206A00F0F4
:1055F000F9FE38BB002000E0012003B0F0BD002020
:105600007047006AA16990F84524D4E9026709321D
:1056100016F1FF36D2B247F1FF37C2F1200EA2F1E8
:10562000200326FA02F207FA0EFE27FA03F342EAF3
:105630000E021A430132B1B1013D4B1C691A0193AC
:105640000A4402BB94F833302046D4E9006763F083
:105650007F03C4E9026784F83330C4E90467FFF7C5
:1056600057FD03B0F0BD0195E161EAE702AA006AC7
:1056700042F8046D00F062FE0028BBDB0AD1019DF8
:10568000002DDFD0B1E70023019900F0E5FD0028EF
:10569000D8D1AFE74FF0FF32A169206A00F090FE49
:1056A0000028ECD1A6E700BF2DE9F04F90F8333089
:1056B00083B004469D07009240F1B3801A078846E4
:1056C00000F1A880009B002B00F01D812146009D69
:1056D0004FF0010AF1E8062393460191206AA1697F
:1056E000D0F8386406EA0B06C6F3080956BB002951
:1056F00000F0CC8094F833305B0640F1E08090F805
:105700004524E3690932D4E902BCD2B21BF1FF3B64
:10571000C2F1200EA2F120074CF1FF3C2BFA02F25D
:105720000CFA0EFE2CFA07F742EA0E023A431A442C
:105730009142C0F0C1802046FFF76CFB002870D07A
:10574000206AA169760A0239D0F82C7490F845E4F1
:10575000374401FA0EF13944B9F1000F6BD1B5F5B8
:10576000007F2CBF00220122002A64D1B5F5806F92
:10577000C0F090800AFA0EFE6B0AD0F81CC2C6EB8D
:105780000E06B34228BF334661454FEA432708D887
:105790005E18B44505D24FF0FF3680F81022C0F8ED
:1057A0001C62D0F8140242460668766AB0470028A8
:1057B00037D038460021B844ED1BD4E90023D4E9A2
:1057C000046712EB000B43EB010C674508BF5E4515
:1057D000C4E900BC07D294F8331061F07F01C4E93A
:1057E00004BC84F83310002D7FF478AF5A4663462A
:1057F000D4E90201994208BF904278D3434B1B6819
:10580000002B7ED094F83330009863F07F0384F847
:1058100033300DE0D0E90423FEF7FCFF00287FF4CD
:1058200051AF94F83230002043F0010384F8323055
:1058300003B0BDE8F08FB9F1000F25D1D4E90423FE
:10584000D4E900679F4208BF964234BF0122052277
:1058500000F5047004F0F0FF0028E2D0C9F50077ED
:1058600048444146AF4228BF2F46B9443A4606F065
:105870004BFDB9F5007F9CD1206A00F5047005F05E
:105880000BF8002895D1CCE70122E1E7E169F1B1FD
:10589000A16157E7D0F81C32994221D0D0F8140208
:1058A000424603681B6A98470028BAD04FF400703C
:1058B00000214FF400777EE70131A16142E7019AB0
:1058C00000F03CFD0028ACDB7FF43AAF33E7204624
:1058D000FFF7A0FA0028A4D0A169206AE16131E7AE
:1058E0004FF0FF3380F81022C0F81C32D6E794F84E
:1058F0003310009861F07F01C4E9022384F833106B
:1059000096E7009894E7D4E9002371E70831002076
:1059100070B5044608460D4609F042FF236802466A
:10592000294620465B68BDE87040184783680146F9
:10593000C3F3080363B100200A69D0540133B3F5FF
:10594000007FF9D1C8680A69036809681B6A1847AB
:1059500001207047826803460069C2F3080230B430
:10596000815440F2FF145D689868A24201EB750112
:1059700000F101005960986002D0012030BC7047EE
:10598000D868196802684D1C146A1D601A6923469C
:1059900030BC184738B50C46C9B20546FFF7DAFFE8
:1059A00000B938BD210A2846BDE83840FFF7D2BF0C
:1059B0002DE9F8430023804601601E468360436062
:1059C000B0B205F059F9B042814605460DD0014606
:1059D0004046FFF7DFFFA0B30136B6F5803FEFD3B7
:1059E0004046BDE8F843FFF7A1BF741CB4F5803F03
:1059F00014D1C6F580374FF48034B7F5007F1AD242
:105A0000A9B240460135FFF7C5FFD0B1A542F7D393
:105A10002E46E2E70134B4F5803FEAD0A0B205F0AB
:105A20002BF9A042F6D0A71BB7F5007F03D2A64200
:105A3000E6D34E46C4E74FF6FF714046FFF7AAFF94
:105A400010B90020BDE8F883B9B24046FFF7A2FFC5
:105A50000028F6D02646C0E72DE9F04F81461F46C4
:105A60000B6889B0C9F80C100846C9F810200E461A
:105A70009B6915469847B0F5801F12D2002F69D058
:105A80003B681522AE4938465B6898473B68384604
:105A90000F22AC495B6800249847204609B0BDE856
:105AA000F08F04460023012201E0944203D9013320
:105AB0005200DBB2F9D11C2B51D90122A3F10B0802
:105AC00048FA02F85FFA88F102FA08F206910492A5
:105AD00001220133134102FA03F303FA02F20593A0
:105AE0009B0001920293029B00214FF40072284612
:105AF000E31A8A464FF0010B23FA08F3039303FAE3
:105B000008F8019B984409F0C9FDFF230722FE20F5
:105B100085F8BFB185F8C2214AF6552E85F8C30134
:105B2000514685F8C4312A4685F8C531304685F896
:105B3000C0B185F8C1A1019BD6F800C0C5F8C63137
:105B4000C5F8CA81DCF82030A5F8FEE19847D0B945
:105B5000002F9BD10024204609B0BDE8F08F1A2BFE
:105B60004FF0080800F22D824FF40043CDF8188062
:105B700002934FF4804301934FF4807304934FF4E6
:105B800000530593AFE751464FF40072284609F0E1
:105B900085FD059B762201982B6590216B654FF062
:105BA000410C039B4FF0540E6A704FF04502EB65B9
:105BB0009DF818302864A865202085F86D306FF0B6
:105BC0001403EA704FF05802C5F844A0C5F84880A5
:105BD0004FF00908C5F84CA06C664FF04604A5F8D4
:105BE0006AA085F86EB04FF0040B85F870A04FF4F2
:105BF000807A2B7005F17703A97005F2FD112A71E7
:105C0000F42228726872A8726FF07F006C7185F8B8
:105C100006C085F807E0C5F860B0A5F868A085F86B
:105C20006C8085F86F0003F8012F9942FBD14FF08B
:105C300000084AF655234446A5F8FE31A8F16A0348
:105C4000012B06D9B8F1700F03D015F8083003EB1B
:105C5000740408F10108B8F5007FEFD133682A46D3
:105C6000019930461B6A984700283FF471AF3368AA
:105C70002A46019930461B6A0C31984700283FF4A8
:105C800067AF019B42460021284603F1010A09F053
:105C900005FD019A4AF65523CDF81C9005F2FF1830
:105CA00002F1090B6A1EA5F8FE31914606924B4699
:105CB00013F8012F984502EB7404F9D133682A4692
:105CC000514630461B6A984700283FF441AF33687D
:105CD0002A460AF10C0130461B6A984700283FF417
:105CE00037AF0AF1010AD345E1D1019B4FF40072AD
:105CF00000212846DDF81C9003F10B0A09F0CEFCC8
:105D0000069B13F8012F984502EB7404F9D1336810
:105D10002A46594630461B6A984700283FF418AF78
:105D200033682A460BF10C0130461B6A984700285D
:105D30003FF40EAF0BF10103534505D09B46DFE75F
:105D40002C110020901100202B1F05F5FE7243F846
:105D5000044F9A42FBD1336851462A4630461B6AAB
:105D6000984700283FF4F4AE33680BF10D012A4642
:105D700030461B6A9847044600283FF4E9AE2FB12D
:105D80003B680C22974938465B689847039B4FF461
:105D90000072002128464FEA8308059B08F2072875
:105DA0009B46019B9B4409F079FC4FEA5823F8205D
:105DB00005F11301FF229E462B46287003F8012FA0
:105DC0009942FBD17346002B31D03B1C4FF0000AA7
:105DD000CDF818904FEA983818BF0123F146059383
:105DE000234654469A4605E0002C00F0F08001342A
:105DF000A14519D001227C493846B4FBF8F308FBD1
:105E0000134323B9059B13B13B685B68984733681C
:105E10002A4604EB0B0130461B6A98470028E3D161
:105E2000002F7FF433AE95E65446DDF81890002F2E
:105E300035D03B6802226D4938465B689847039B22
:105E400003F10708049B4FEAD80808F2FF1A4FEA4B
:105E50005A2A9A453FF61AAE4FF40072002128469E
:105E600009F01CFC07232B70BAF1000F7CD04FF017
:105E7000000B07E0BBF1000F00F0B0800BF1010B4D
:105E8000DA456FD033682A46029930461B6A594476
:105E900098470028EED1002F7FF4F8AD5AE6039B17
:105EA00003F10708049B4FEAD80808F2FF1A4FEAEB
:105EB0005A2A9A453FF64EAE4FF4007239462846AC
:105EC00009F0ECFB07232B70BAF1000FCFD1019B37
:105ED00048464FEA430A049B0AEB0301FFF768FDBB
:105EE00000283FF437AED9F80830049AB3EB422FBC
:105EF0003FF630AE049B4FF40072002128460AEBB7
:105F0000430A09F0CBFB03228123822102202A705D
:105F100085F820300023686385F84010D9F8041014
:105F20006A656964D9F80820C5F83880AA65049ABA
:105F3000EB65002A3DD0984607E0B8F1000F31D05C
:105F400008F10108049B984533D033682A460AEBD0
:105F5000080130461B6A98470028EED1002F7FF4D5
:105F600095ADF7E5002FB2D0019B384620494FEAA6
:105F7000430AFFF7CDFC049B48460AEB0301FFF7F9
:105F800017FD00283FF482ADD9F80830049AB3EB2E
:105F9000422F3FF67BAD002FACD016493846FFF7B5
:105FA000B7FCA7E74FF400724146284609F076FB9C
:105FB000C6E7002F3FF471AD38460F49FFF7A8FC44
:105FC0006BE54FF48072CDF81880049280E54FF4B1
:105FD00000722146284609F061FB08E785F800B009
:105FE0004CE700BF44110020541100206C11002028
:105FF0005811002070110020801100202DE9F0417F
:106000000C46154601F11E08AB89284634F8026F8C
:106010001BB96A68AB689A420ED004F01FFD04F009
:106020002BFE0746304604F027FE874209D144453F
:10603000EAD10120BDE8F081B6FA86F04009BDE85A
:10604000F0810020BDE8F0812DE9F84F90F8313063
:106050008946002B44D090F830308046012B52D92D
:10606000013A0C4602274FF0000B8E1800223946E9
:106070004046FEF737FA98B30378C12B30D18246F9
:1060800000F11E0519E000F510539BB2B3F5806FC7
:1060900026D24FEA8B2B1D4BC0F309000BEA0303FA
:1060A000184300F580303246214604F04FFD88B198
:1060B000AA4504464FF0000B1ED03AF8020FBBF180
:1060C000000FE0D100F520539BB2B3F5006F0DD364
:1060D0000028E8D1C9EB040000232370BDE8F88F45
:1060E0000023184689F80030BDE8F88FB3F5806FBB
:1060F000F6D2AA458346E0D1013798F83030FFB296
:10610000BB42B3D2E6E70C460020E5E700FC0F00F7
:10611000F8B50D4600234FF6FF762A681946AB8185
:106120001C466A602B6116E004F098FCB04221D056
:1061300004F0A2FD2B69E203A9890712013342EAA8
:1061400054022B6152FA80F0C0F34E0343EAC03090
:1061500017FA80F4A4B228460029E5D16A68AB6832
:106160009A42E1D12869AC820138FE288CBF002018
:106170000120F8BD0020F8BD38B50C46D0F8241435
:10618000154600F50470012201EBD41104F054FB14
:10619000034628B1A4000120C4F308041D5138BDF2
:1061A00038BD00BF2DE9F84F804691468B46002947
:1061B00043D08F1ED8F830349F423AD207F00705FB
:1061C0000123C7F3C80A03FA05F5EDB23E463C4683
:1061D000D8F82C140022404601EB143104F02CFBBB
:1061E000C0B110F80A100AE04A4529D0A74210D0E1
:1061F000D8F83024944216D213F0FF050CD00134A5
:106200000D424FEA4503A4EB0602EDD0A742264615
:10621000EED10120BDE8F88F0AF1010A0125BAF597
:10622000007FDED101E0002634464FF0000A012550
:10623000CEE700270125BA46C8E7D0F82074B9E7B1
:10624000BBF1000F04D1B9F1010F08BFC8F82064F9
:10625000B01CBDE8F88F00BF2DE9F04702391546A4
:106260009A46D0F830244B19934238D88046BAF178
:10627000000F37D1D0F82034994238BFC0F820142D
:1062800001F007040122D8F82C34C1F3C80602FA41
:1062900004F403EB1139E4B201224946404691442B
:1062A00004F0CAFAD8B1871900F5007017F8012B6D
:1062B000224282EA04024FEA440414BF0126002667
:1062C00056450CD0013D07F8012C17D014F0FF04FF
:1062D000EED1874226464FF00104E7D1DCE70020EB
:1062E000BDE8F087D0F820048342C9D98142C7D8DD
:1062F000934228BF0023C8F82034C1E70120BDE83D
:10630000F08700BF70B50E460446D0F8385400F54B
:106310000470496833682940D4F82C54023B94F83F
:10632000454405EB5121A340194404F085FA18B106
:106330007368C3F30803184470BD00BF38B5D0F8C4
:10634000303401338B4214D30C46D0F82414154654
:1063500000F50470002201EBD41104F06DFA40B195
:10636000A100C1F308014358581C2B6018BF01203D
:1063700038BD4FF0FF3038BD70B54C680D46D0F8D1
:1063800038340646A1182340696090F845441A4401
:106390000934E4B222FA04F43CB12B7A3BB12B6805
:1063A00001332B60013C002CF7D1012070BD2A463F
:1063B00029683046FFF7C2FF0128F3D070BD00BF47
:1063C00001290DD9D0F830340133994210B403D9E2
:1063D00000205DF8044B70475DF8044BFFF7CCBE1E
:1063E000002070472DE9F0410C4682B005468846F2
:1063F000214601AA2846FFF7A1FF012C0746C0F35A
:10640000C0162146284626D9324626BBD5F8303458
:1064100001339C421FD8FFF7AFFE04F1010E414645
:106420003346C8EB0E02B0B1284647B1019CA645E1
:10643000DED0FFF711FF70B1019CA046D8E7621CC7
:106440003B4641462846C8EB0202FFF705FF10B164
:1064500002B0BDE8F081002002B0BDE8F08100BFCD
:106460002DE9F84300248046D0F82C6400F5047729
:106470002546314600223846013604F0DDF928B3BE
:1064800000F1FF3ED8F830C405F580591EF8010F21
:10649000FF2813D048B10822012318424FEA4301D4
:1064A00018BF0134013ACBB2F7D10835AC4509D950
:1064B0004D45DED01EF8010FFF28EBD1083508341A
:1064C000AC45F5D8C4EB0C00BDE8F883BDE8F88313
:1064D0002DE9F0410446002586B04FF0FF36C0F8A4
:1064E0004014416005ABC4F81412084684F84454C3
:1064F0001146257004F5087284F810520295019532
:106500000095E660C4F81C6204F0CEF910F0FB0FB1
:1065100003D1002006B0BDE8F081DDF8148004F559
:1065200004772A463846414604F086F90646002894
:10653000EFD005221A49033009F0A0F907460028D8
:10654000E7D196F86C30092BE3D1336D0125014674
:10655000204643442A46C4F82434736DC4F82834D2
:10656000B36D4344C4F82C34F36DC4F83034336E47
:10657000C4F8343496F86D60C4F8207406F1090349
:1065800084F8456405FA03F35E1EC4F83C34C4F88D
:106590003864FFF707FE4023284684F84434B9E7FF
:1065A000A011002070B582B0D0F834140546002444
:1065B00002AE46F8041D01E009D001993246284692
:1065C000FFF7BCFE002804F10104F5DA002495F879
:1065D00045040930C0B204FA00F002B070BD00BF3B
:1065E00038B50D4604462422002109F057F8A5606D
:1065F000EB79102B08D0202B04D1402301202370ED
:10660000A07038BD002038BD202301202370A07069
:1066100038BD00BF024638B552F8105F04468068A6
:10662000294602F019F850B155B123690135AB4242
:10663000A37818BF03F0BF0363F07F03A37038BDD6
:10664000A37843F04003F7E72DE9F041037803F026
:1066500020032BB903F0FF044169204B994203D971
:1066600000263046BDE8F0810546FFF7D3FF064619
:106670000028F5D0A96805222B698F7901F128003F
:10668000023B4969BB405F18394604F0D5F88046A3
:106690000028E5D04FF40072214608F0FFFFAB68F8
:1066A0001A79012A10D9012404E0AB68E4B21A79FE
:1066B000A24209D91868E1194246013403681B6AED
:1066C00098470028F1D1CBE79B794FF400726969B4
:1066D00002FA03F311FA83F36B61C2E7FFFD1F00B7
:1066E00010B5044680680A462830A16904F0A4F871
:1066F00020B1A38803F00F0300EB431010BD00BFCF
:1067000030B590F9023083B00446002B19DBA56840
:1067100005F1280004F0C0F830B96378002043F098
:106720000103637003B030BD05F50E7004F0B4F8DA
:106730000028F2D028680368DB6998470028ECD06D
:10674000F0E70121FFF7CCFF05460028E5D00378EC
:10675000E52BE2D023781B0701D5E369C361236AE7
:106760000B491A0C6B830B68AA8263B10DF103020B
:106770000DF1060101A89847BDF80430BDF80620C8
:106780002B836B82EA82A37803F07F03A370BEE7BA
:106790000831002010B50378044623B900230120F6
:1067A0002370A37010BDFFF7ABFF00232370A3700D
:1067B00010BD00BF70B5037805460C46BBB928462E
:1067C0000021FFF78DFF0346A8B1066801205D6830
:1067D0009968DA6826606560A160E2601E695D699B
:1067E0009969DA6926616561A161E26170BDFFF7AF
:1067F00087FF0028E3D1002070BD00BF30B589B00D
:106800000D4614466946FFF7D5FF28B1BDF81020A4
:10681000BDF80E302A80238009B030BD30B589B074
:106820000D4614466946FFF7C5FF28B1BDF818208C
:10683000BDF816302A80238009B030BD2DE9F04123
:106840000C7888B014F0700F03D1002008B0BDE8B8
:10685000F08140F6022305460C4601F06DF8002851
:10686000F3D0012210232846AA702B70FFF7ECFE0C
:106870000028EAD02A692B782A62002B7FD10121D7
:106880002846FFF72DFF07460028DED010230068BA
:106890007968EE46FB724FF02E0CBA6808AEFB68C2
:1068A000B7F81480AEE80F00BA69FB6938697969F6
:1068B00006F820CD0DF10A0C7F8BAEE80F003346B1
:1068C000202203F8012F6345FBD1A86801222B6A1F
:1068D00090F806E02830023B50F8141C03FA0EF33F
:1068E000194403F0A9FF86460028AED0ADF8148005
:1068F0004FF02E08ADF81A7037460FCECEF80000D4
:10690000CEF80410CEF80820CEF80C308DF80180B7
:106910000FCECEF81000CEF81410CEF81820CEF816
:106920001C30236A1A0CADF81A30ADF814200FCFC2
:10693000CEF82000CEF82410CEF82820CEF82C3047
:106940000FCFCEF83000CEF83410CEF83820CEF885
:106950003C30AC6804F1280003F09EFF00283FF4AF
:1069600074AF04F50E7003F097FF00283FF46DAF8D
:1069700020680368DB6908B0BDE8F04118476B691F
:1069800033B1AB78002223F020032A616A61AB7037
:106990002846FFF7B5FE00283FF457AF6FE700BF6A
:1069A0002DE9F041064694B000200C463178019262
:1069B000ADF814008DF82C008DF82D008DF82E0008
:1069C00021B99846237813F0700F03D1002014B03A
:1069D000BDE8F081137811462F2B2ED0002701AB94
:1069E00002AA304601F0F2F802AA2146002300284C
:1069F000ECD0019D30462D78002D30D000F09CFF6A
:106A000048B9B8F1000FE1D0214602AA3046FFF79D
:106A100015FF0028DAD035460BAC96F800E00FCD14
:106A20000FC40FCD2D680FC42560BEF1000F12D129
:106A300037700BACB7700199D1E7013101910B7838
:106A40002F2BFAD0A1680BA8FFF7CAFD0028BDD0F4
:106A50000BAC0199C2E73046FFF752FEE8E702AA05
:106A600021463046FFF7EAFE14B0BDE8F08100BFD2
:106A70002DE9F041064694B000200D463178019290
:106A80008DF808008DF809008DF80A00ADF838007F
:106A900021B998462B7813F0700F03D1002014B061
:106AA000BDE8F081137811462F2B2AD0002702E091
:106AB00001993770B77001AB0BAA304601F086F828
:106AC0000BAA294600230028E8D0019C30462478F0
:106AD00034B300F031FF354602AC0028DED096F822
:106AE00000E00FCD0FC40FCDD5F800C002AD0FC42C
:106AF000C4F800C0BEF1000FDAD03046FFF700FE48
:106B0000D6E7013101910B782F2BFAD08BB1A96810
:106B100002A8FFF765FD0028C0D002AD0199C5E7C6
:106B200043460BAA2946304600F006FF14B0BDE8E4
:106B3000F081A9683046FFF753FDB0E719B101F5C0
:106B40008961FFF795BF0846704700BF38B5CB682D
:106B500043B902780AB1184638BD8968BDE83840A3
:106B6000FFF73EBD0D4624220021044608F096FDA5
:106B700001231022A37018462270AA68EB68A26055
:106B8000236238BD03780BB100207047FFF728BDA2
:106B90002DE9F04F837883B00546DF0740F1908000
:106BA0000F46017891460E0700F193808C0608D5B8
:106BB000826843691289C3EB42139BB2994528BF8F
:106BC0009946B9F1000F00F0AA806B6988064E461D
:106BD0004FF0000805F1100AAA68C3F3080440D575
:106BE000116A01EB5321002C54D1B6F5007F51D32B
:106BF000536B99424ED0B6F5806F73D328784FEA25
:106C0000562B800605D41079C8EB0000834528BFB9
:106C1000834699424FEA4B240DD801EB0B00834287
:106C200009D202F128000191009203F035FE009A8A
:106C30000199002844D0D06A5B463A46D0F800E07B
:106C4000DEF810B0D84700283AD06B69361B2744CD
